{
  "_format": "hh-sol-artifact-1",
  "contractName": "Twitter",
  "sourceName": "contracts/twitter-q2.sol",
  "abi": [
    {
      "inputs": [
        {
          "internalType": "address",
          "name": "_user",
          "type": "address"
        }
      ],
      "name": "followUser",
      "outputs": [],
      "stateMutability": "nonpayable",
      "type": "function"
    },
    {
      "inputs": [
        {
          "internalType": "address",
          "name": "_user",
          "type": "address"
        }
      ],
      "name": "getConversationWithUser",
      "outputs": [
        {
          "components": [
            {
              "internalType": "uint256",
              "name": "messageId",
              "type": "uint256"
            },
            {
              "internalType": "string",
              "name": "content",
              "type": "string"
            },
            {
              "internalType": "address",
              "name": "from",
              "type": "address"
            },
            {
              "internalType": "address",
              "name": "to",
              "type": "address"
            }
          ],
          "internalType": "struct Twitter.Message[]",
          "name": "",
          "type": "tuple[]"
        }
      ],
      "stateMutability": "view",
      "type": "function"
    },
    {
      "inputs": [],
      "name": "getFollowers",
      "outputs": [
        {
          "internalType": "address[]",
          "name": "",
          "type": "address[]"
        }
      ],
      "stateMutability": "view",
      "type": "function"
    },
    {
      "inputs": [],
      "name": "getFollowing",
      "outputs": [
        {
          "internalType": "address[]",
          "name": "",
          "type": "address[]"
        }
      ],
      "stateMutability": "view",
      "type": "function"
    },
    {
      "inputs": [],
      "name": "getTweetFeed",
      "outputs": [
        {
          "components": [
            {
              "internalType": "uint256",
              "name": "tweetId",
              "type": "uint256"
            },
            {
              "internalType": "address",
              "name": "author",
              "type": "address"
            },
            {
              "internalType": "string",
              "name": "content",
              "type": "string"
            },
            {
              "internalType": "uint256",
              "name": "createdAt",
              "type": "uint256"
            }
          ],
          "internalType": "struct Twitter.Tweet[]",
          "name": "",
          "type": "tuple[]"
        }
      ],
      "stateMutability": "view",
      "type": "function"
    },
    {
      "inputs": [],
      "name": "nextMessageId",
      "outputs": [
        {
          "internalType": "uint256",
          "name": "",
          "type": "uint256"
        }
      ],
      "stateMutability": "view",
      "type": "function"
    },
    {
      "inputs": [],
      "name": "nextTweetId",
      "outputs": [
        {
          "internalType": "uint256",
          "name": "",
          "type": "uint256"
        }
      ],
      "stateMutability": "view",
      "type": "function"
    },
    {
      "inputs": [
        {
          "internalType": "string",
          "name": "_content",
          "type": "string"
        }
      ],
      "name": "postTweet",
      "outputs": [],
      "stateMutability": "nonpayable",
      "type": "function"
    },
    {
      "inputs": [
        {
          "internalType": "address",
          "name": "_user",
          "type": "address"
        }
      ],
      "name": "readTweets",
      "outputs": [
        {
          "components": [
            {
              "internalType": "uint256",
              "name": "tweetId",
              "type": "uint256"
            },
            {
              "internalType": "address",
              "name": "author",
              "type": "address"
            },
            {
              "internalType": "string",
              "name": "content",
              "type": "string"
            },
            {
              "internalType": "uint256",
              "name": "createdAt",
              "type": "uint256"
            }
          ],
          "internalType": "struct Twitter.Tweet[]",
          "name": "",
          "type": "tuple[]"
        }
      ],
      "stateMutability": "view",
      "type": "function"
    },
    {
      "inputs": [
        {
          "internalType": "string",
          "name": "_name",
          "type": "string"
        }
      ],
      "name": "registerAccount",
      "outputs": [],
      "stateMutability": "nonpayable",
      "type": "function"
    },
    {
      "inputs": [
        {
          "internalType": "address",
          "name": "_recipient",
          "type": "address"
        },
        {
          "internalType": "string",
          "name": "_content",
          "type": "string"
        }
      ],
      "name": "sendMessage",
      "outputs": [],
      "stateMutability": "nonpayable",
      "type": "function"
    },
    {
      "inputs": [
        {
          "internalType": "uint256",
          "name": "",
          "type": "uint256"
        }
      ],
      "name": "tweets",
      "outputs": [
        {
          "internalType": "uint256",
          "name": "tweetId",
          "type": "uint256"
        },
        {
          "internalType": "address",
          "name": "author",
          "type": "address"
        },
        {
          "internalType": "string",
          "name": "content",
          "type": "string"
        },
        {
          "internalType": "uint256",
          "name": "createdAt",
          "type": "uint256"
        }
      ],
      "stateMutability": "view",
      "type": "function"
    },
    {
      "inputs": [
        {
          "internalType": "address",
          "name": "",
          "type": "address"
        }
      ],
      "name": "users",
      "outputs": [
        {
          "internalType": "address",
          "name": "wallet",
          "type": "address"
        },
        {
          "internalType": "string",
          "name": "name",
          "type": "string"
        }
      ],
      "stateMutability": "view",
      "type": "function"
    }
  ],
  "bytecode": "0x608060405234801561001057600080fd5b50612159806100206000396000f3fe608060405234801561001057600080fd5b50600436106100cf5760003560e01c80638076e02b1161008c578063bff6de2011610066578063bff6de2014610215578063de6f24bb14610231578063e8d857b01461024d578063eefbf17e14610280576100cf565b80638076e02b146101aa578063a70806f7146101c8578063a87430ba146101e4576100cf565b80630cbc3dc4146100d45780630d79f561146100f057806323f147021461010e578063495b8c291461012c57806371c85b8d1461014a57806375d92f531461017a575b600080fd5b6100ee60048036038101906100e991906117e8565b61029e565b005b6100f86104f1565b6040516101059190611925565b60405180910390f35b6101166105be565b6040516101239190611925565b60405180910390f35b61013461068b565b6040516101419190611b1e565b60405180910390f35b610164600480360381019061015f9190611b6c565b610847565b6040516101719190611b1e565b60405180910390f35b610194600480360381019061018f9190611b6c565b610bc7565b6040516101a19190611cbe565b60405180910390f35b6101b2610dec565b6040516101bf9190611cef565b60405180910390f35b6101e260048036038101906101dd9190611b6c565b610df2565b005b6101fe60048036038101906101f99190611b6c565b610f39565b60405161020c929190611d63565b60405180910390f35b61022f600480360381019061022a91906117e8565b611005565b005b61024b60048036038101906102469190611d93565b611131565b005b61026760048036038101906102629190611e1f565b6114e0565b6040516102779493929190611e4c565b60405180910390f35b6102886115b8565b6040516102959190611cef565b60405180910390f35b3360008060008373ffffffffffffffffffffffffffffffffffffffff1673ffffffffffffffffffffffffffffffffffffffff16815260200190815260200160002060010180546102ed90611ec7565b80601f016020809104026020016040519081016040528092919081815260200182805461031990611ec7565b80156103665780601f1061033b57610100808354040283529160200191610366565b820191906000526020600020905b81548152906001019060200180831161034957829003601f168201915b5050505050905060008151116103b1576040517f08c379a00000000000000000000000000000000000000000000000000000000081526004016103a890611f6b565b60405180910390fd5b600254600160006002548152602001908152602001600020600001819055503360016000600254815260200190815260200160002060010160006101000a81548173ffffffffffffffffffffffffffffffffffffffff021916908373ffffffffffffffffffffffffffffffffffffffff1602179055508383600160006002548152602001908152602001600020600201919061044e9291906115be565b5042600160006002548152602001908152602001600020600301819055506000803373ffffffffffffffffffffffffffffffffffffffff1673ffffffffffffffffffffffffffffffffffffffff168152602001908152602001600020600201600254908060018154018082558091505060019003906000526020600020016000909190919091505560016002546104e59190611fba565b60028190555050505050565b60606000803373ffffffffffffffffffffffffffffffffffffffff1673ffffffffffffffffffffffffffffffffffffffff1681526020019081526020016000206004018054806020026020016040519081016040528092919081815260200182805480156105b457602002820191906000526020600020905b8160009054906101000a900473ffffffffffffffffffffffffffffffffffffffff1673ffffffffffffffffffffffffffffffffffffffff168152602001906001019080831161056a575b5050505050905090565b60606000803373ffffffffffffffffffffffffffffffffffffffff1673ffffffffffffffffffffffffffffffffffffffff16815260200190815260200160002060030180548060200260200160405190810160405280929190818152602001828054801561068157602002820191906000526020600020905b8160009054906101000a900473ffffffffffffffffffffffffffffffffffffffff1673ffffffffffffffffffffffffffffffffffffffff1681526020019060010190808311610637575b5050505050905090565b6060600060025467ffffffffffffffff8111156106ab576106aa612010565b5b6040519080825280602002602001820160405280156106e457816020015b6106d1611644565b8152602001906001900390816106c95790505b50905060005b60025481101561083f5760016000828152602001908152602001600020604051806080016040529081600082015481526020016001820160009054906101000a900473ffffffffffffffffffffffffffffffffffffffff1673ffffffffffffffffffffffffffffffffffffffff1673ffffffffffffffffffffffffffffffffffffffff16815260200160028201805461078290611ec7565b80601f01602080910402602001604051908101604052809291908181526020018280546107ae90611ec7565b80156107fb5780601f106107d0576101008083540402835291602001916107fb565b820191906000526020600020905b8154815290600101906020018083116107de57829003601f168201915b505050505081526020016003820154815250508282815181106108215761082061203f565b5b602002602001018190525080806108379061206e565b9150506106ea565b508091505090565b60603360008060008373ffffffffffffffffffffffffffffffffffffffff1673ffffffffffffffffffffffffffffffffffffffff168152602001908152602001600020600101805461089890611ec7565b80601f01602080910402602001604051908101604052809291908181526020018280546108c490611ec7565b80156109115780601f106108e657610100808354040283529160200191610911565b820191906000526020600020905b8154815290600101906020018083116108f457829003601f168201915b50505050509050600081511161095c576040517f08c379a000000000000000000000000000000000000000000000000000000000815260040161095390611f6b565b60405180910390fd5b60008060008673ffffffffffffffffffffffffffffffffffffffff1673ffffffffffffffffffffffffffffffffffffffff1681526020019081526020016000206002018054806020026020016040519081016040528092919081815260200182805480156109e957602002820191906000526020600020905b8154815260200190600101908083116109d5575b505050505090506000815167ffffffffffffffff811115610a0d57610a0c612010565b5b604051908082528060200260200182016040528015610a4657816020015b610a33611644565b815260200190600190039081610a2b5790505b50905060005b8251811015610bba5760016000848381518110610a6c57610a6b61203f565b5b60200260200101518152602001908152602001600020604051806080016040529081600082015481526020016001820160009054906101000a900473ffffffffffffffffffffffffffffffffffffffff1673ffffffffffffffffffffffffffffffffffffffff1673ffffffffffffffffffffffffffffffffffffffff168152602001600282018054610afd90611ec7565b80601f0160208091040260200160405190810160405280929190818152602001828054610b2990611ec7565b8015610b765780601f10610b4b57610100808354040283529160200191610b76565b820191906000526020600020905b815481529060010190602001808311610b5957829003601f168201915b50505050508152602001600382015481525050828281518110610b9c57610b9b61203f565b5b60200260200101819052508080610bb29061206e565b915050610a4c565b5080945050505050919050565b60606000803373ffffffffffffffffffffffffffffffffffffffff1673ffffffffffffffffffffffffffffffffffffffff16815260200190815260200160002060050160008373ffffffffffffffffffffffffffffffffffffffff1673ffffffffffffffffffffffffffffffffffffffff168152602001908152602001600020805480602002602001604051908101604052809291908181526020016000905b82821015610de1578382906000526020600020906004020160405180608001604052908160008201548152602001600182018054610ca490611ec7565b80601f0160208091040260200160405190810160405280929190818152602001828054610cd090611ec7565b8015610d1d5780601f10610cf257610100808354040283529160200191610d1d565b820191906000526020600020905b815481529060010190602001808311610d0057829003601f168201915b505050505081526020016002820160009054906101000a900473ffffffffffffffffffffffffffffffffffffffff1673ffffffffffffffffffffffffffffffffffffffff1673ffffffffffffffffffffffffffffffffffffffff1681526020016003820160009054906101000a900473ffffffffffffffffffffffffffffffffffffffff1673ffffffffffffffffffffffffffffffffffffffff1673ffffffffffffffffffffffffffffffffffffffff168152505081526020019060010190610c67565b505050509050919050565b60025481565b6000803373ffffffffffffffffffffffffffffffffffffffff1673ffffffffffffffffffffffffffffffffffffffff168152602001908152602001600020600301819080600181540180825580915050600190039060005260206000200160009091909190916101000a81548173ffffffffffffffffffffffffffffffffffffffff021916908373ffffffffffffffffffffffffffffffffffffffff1602179055506000808273ffffffffffffffffffffffffffffffffffffffff1673ffffffffffffffffffffffffffffffffffffffff168152602001908152602001600020600401339080600181540180825580915050600190039060005260206000200160009091909190916101000a81548173ffffffffffffffffffffffffffffffffffffffff021916908373ffffffffffffffffffffffffffffffffffffffff16021790555050565b60006020528060005260406000206000915090508060000160009054906101000a900473ffffffffffffffffffffffffffffffffffffffff1690806001018054610f8290611ec7565b80601f0160208091040260200160405190810160405280929190818152602001828054610fae90611ec7565b8015610ffb5780601f10610fd057610100808354040283529160200191610ffb565b820191906000526020600020905b815481529060010190602001808311610fde57829003601f168201915b5050505050905082565b600082828080601f016020809104026020016040519081016040528093929190818152602001838380828437600081840152601f19601f8201169050808301925050505050505090506000815111611092576040517f08c379a000000000000000000000000000000000000000000000000000000000815260040161108990612103565b60405180910390fd5b60008060003373ffffffffffffffffffffffffffffffffffffffff1673ffffffffffffffffffffffffffffffffffffffff1681526020019081526020016000209050338160000160006101000a81548173ffffffffffffffffffffffffffffffffffffffff021916908373ffffffffffffffffffffffffffffffffffffffff160217905550838382600101919061112a9291906115be565b5050505050565b611139611682565b60035481600001818152505082828080601f016020809104026020016040519081016040528093929190818152602001838380828437600081840152601f19601f82011690508083019250505050505050816020018190525033816040019073ffffffffffffffffffffffffffffffffffffffff16908173ffffffffffffffffffffffffffffffffffffffff168152505083816060019073ffffffffffffffffffffffffffffffffffffffff16908173ffffffffffffffffffffffffffffffffffffffff16815250506000803373ffffffffffffffffffffffffffffffffffffffff1673ffffffffffffffffffffffffffffffffffffffff16815260200190815260200160002060050160008573ffffffffffffffffffffffffffffffffffffffff1673ffffffffffffffffffffffffffffffffffffffff1681526020019081526020016000208190806001815401808255809150506001900390600052602060002090600402016000909190919091506000820151816000015560208201518160010190805190602001906112d09291906116d6565b5060408201518160020160006101000a81548173ffffffffffffffffffffffffffffffffffffffff021916908373ffffffffffffffffffffffffffffffffffffffff16021790555060608201518160030160006101000a81548173ffffffffffffffffffffffffffffffffffffffff021916908373ffffffffffffffffffffffffffffffffffffffff16021790555050506000808573ffffffffffffffffffffffffffffffffffffffff1673ffffffffffffffffffffffffffffffffffffffff16815260200190815260200160002060050160003373ffffffffffffffffffffffffffffffffffffffff1673ffffffffffffffffffffffffffffffffffffffff16815260200190815260200160002081908060018154018082558091505060019003906000526020600020906004020160009091909190915060008201518160000155602082015181600101908051906020019061142f9291906116d6565b5060408201518160020160006101000a81548173ffffffffffffffffffffffffffffffffffffffff021916908373ffffffffffffffffffffffffffffffffffffffff16021790555060608201518160030160006101000a81548173ffffffffffffffffffffffffffffffffffffffff021916908373ffffffffffffffffffffffffffffffffffffffff16021790555050506001600360008282546114d39190611fba565b9250508190555050505050565b60016020528060005260406000206000915090508060000154908060010160009054906101000a900473ffffffffffffffffffffffffffffffffffffffff169080600201805461152f90611ec7565b80601f016020809104026020016040519081016040528092919081815260200182805461155b90611ec7565b80156115a85780601f1061157d576101008083540402835291602001916115a8565b820191906000526020600020905b81548152906001019060200180831161158b57829003601f168201915b5050505050908060030154905084565b60035481565b8280546115ca90611ec7565b90600052602060002090601f0160209004810192826115ec5760008555611633565b82601f1061160557803560ff1916838001178555611633565b82800160010185558215611633579182015b82811115611632578235825591602001919060010190611617565b5b509050611640919061175c565b5090565b604051806080016040528060008152602001600073ffffffffffffffffffffffffffffffffffffffff16815260200160608152602001600081525090565b60405180608001604052806000815260200160608152602001600073ffffffffffffffffffffffffffffffffffffffff168152602001600073ffffffffffffffffffffffffffffffffffffffff1681525090565b8280546116e290611ec7565b90600052602060002090601f016020900481019282611704576000855561174b565b82601f1061171d57805160ff191683800117855561174b565b8280016001018555821561174b579182015b8281111561174a57825182559160200191906001019061172f565b5b509050611758919061175c565b5090565b5b8082111561177557600081600090555060010161175d565b5090565b600080fd5b600080fd5b600080fd5b600080fd5b600080fd5b60008083601f8401126117a8576117a7611783565b5b8235905067ffffffffffffffff8111156117c5576117c4611788565b5b6020830191508360018202830111156117e1576117e061178d565b5b9250929050565b600080602083850312156117ff576117fe611779565b5b600083013567ffffffffffffffff81111561181d5761181c61177e565b5b61182985828601611792565b92509250509250929050565b600081519050919050565b600082825260208201905092915050565b6000819050602082019050919050565b600073ffffffffffffffffffffffffffffffffffffffff82169050919050565b600061188c82611861565b9050919050565b61189c81611881565b82525050565b60006118ae8383611893565b60208301905092915050565b6000602082019050919050565b60006118d282611835565b6118dc8185611840565b93506118e783611851565b8060005b838110156119185781516118ff88826118a2565b975061190a836118ba565b9250506001810190506118eb565b5085935050505092915050565b6000602082019050818103600083015261193f81846118c7565b905092915050565b600081519050919050565b600082825260208201905092915050565b6000819050602082019050919050565b6000819050919050565b61198681611973565b82525050565b600081519050919050565b600082825260208201905092915050565b60005b838110156119c65780820151818401526020810190506119ab565b838111156119d5576000848401525b50505050565b6000601f19601f8301169050919050565b60006119f78261198c565b611a018185611997565b9350611a118185602086016119a8565b611a1a816119db565b840191505092915050565b6000608083016000830151611a3d600086018261197d565b506020830151611a506020860182611893565b5060408301518482036040860152611a6882826119ec565b9150506060830151611a7d606086018261197d565b508091505092915050565b6000611a948383611a25565b905092915050565b6000602082019050919050565b6000611ab482611947565b611abe8185611952565b935083602082028501611ad085611963565b8060005b85811015611b0c5784840389528151611aed8582611a88565b9450611af883611a9c565b925060208a01995050600181019050611ad4565b50829750879550505050505092915050565b60006020820190508181036000830152611b388184611aa9565b905092915050565b611b4981611881565b8114611b5457600080fd5b50565b600081359050611b6681611b40565b92915050565b600060208284031215611b8257611b81611779565b5b6000611b9084828501611b57565b91505092915050565b600081519050919050565b600082825260208201905092915050565b6000819050602082019050919050565b6000608083016000830151611bdd600086018261197d565b5060208301518482036020860152611bf582826119ec565b9150506040830151611c0a6040860182611893565b506060830151611c1d6060860182611893565b508091505092915050565b6000611c348383611bc5565b905092915050565b6000602082019050919050565b6000611c5482611b99565b611c5e8185611ba4565b935083602082028501611c7085611bb5565b8060005b85811015611cac5784840389528151611c8d8582611c28565b9450611c9883611c3c565b925060208a01995050600181019050611c74565b50829750879550505050505092915050565b60006020820190508181036000830152611cd88184611c49565b905092915050565b611ce981611973565b82525050565b6000602082019050611d046000830184611ce0565b92915050565b611d1381611881565b82525050565b600082825260208201905092915050565b6000611d358261198c565b611d3f8185611d19565b9350611d4f8185602086016119a8565b611d58816119db565b840191505092915050565b6000604082019050611d786000830185611d0a565b8181036020830152611d8a8184611d2a565b90509392505050565b600080600060408486031215611dac57611dab611779565b5b6000611dba86828701611b57565b935050602084013567ffffffffffffffff811115611ddb57611dda61177e565b5b611de786828701611792565b92509250509250925092565b611dfc81611973565b8114611e0757600080fd5b50565b600081359050611e1981611df3565b92915050565b600060208284031215611e3557611e34611779565b5b6000611e4384828501611e0a565b91505092915050565b6000608082019050611e616000830187611ce0565b611e6e6020830186611d0a565b8181036040830152611e808185611d2a565b9050611e8f6060830184611ce0565b95945050505050565b7f4e487b7100000000000000000000000000000000000000000000000000000000600052602260045260246000fd5b60006002820490506001821680611edf57607f821691505b60208210811415611ef357611ef2611e98565b5b50919050565b7f546869732077616c6c657420646f6573206e6f742062656c6f6e6720746f206160008201527f6e79206163636f756e742e000000000000000000000000000000000000000000602082015250565b6000611f55602b83611d19565b9150611f6082611ef9565b604082019050919050565b60006020820190508181036000830152611f8481611f48565b9050919050565b7f4e487b7100000000000000000000000000000000000000000000000000000000600052601160045260246000fd5b6000611fc582611973565b9150611fd083611973565b9250827fffffffffffffffffffffffffffffffffffffffffffffffffffffffffffffffff0382111561200557612004611f8b565b5b828201905092915050565b7f4e487b7100000000000000000000000000000000000000000000000000000000600052604160045260246000fd5b7f4e487b7100000000000000000000000000000000000000000000000000000000600052603260045260246000fd5b600061207982611973565b91507fffffffffffffffffffffffffffffffffffffffffffffffffffffffffffffffff8214156120ac576120ab611f8b565b5b600182019050919050565b7f4e616d652063616e6e6f7420626520616e20656d70747920737472696e670000600082015250565b60006120ed601e83611d19565b91506120f8826120b7565b602082019050919050565b6000602082019050818103600083015261211c816120e0565b905091905056fea26469706673582212202b5154dc0d8642558e39390def7338ef2a60c23e5b4d16fcda7214b72d0ebe3064736f6c63430008090033",
  "linkReferences": {},
  "deployedLinkReferences": {}
}